:03000000020749AB
:0100030032CA
:03000B0002057B70
:0100130032BA
:01001B0032B2
:0100230032AA
:10002B000205A3534F414B2054454D503A202020FD
:10003B0020202000534F414B2054494D453A20205E
:10004B0020202020005245464C4F572054454D5000
:10005B003A20202020005245464C4F572054494D02
:10006B00453A2020202020002D3E5354415254204D
:10007B00322053544152542020002D3E45444954C4
:10008B00203220454449542020202000434F4E4627
:10009B0049524D3F202020202020202020202000CE
:1000AB005245464C4F572054494D453F2020202068
:1000BB0020202000434F4E4649524D3F2020202008
:1000CB002020202020202000312052414D50202084
:1000DB002054733A20202020202020003220534F20
:1000EB00414B2020202020202020202020202000D9
:1000FB00332052414D5020202054723A2020202092
:10010B002020200034205245464C4F5720202020E1
:10011B0020202020202020003520434F4F4C494EDB
:10012B0047202020202020202020200020202020BD
:0F013B00202020202020202020202020202000F5
:10014A00C000788500D8FDD00022C000C0017928FF
:10015A007868D8FED9FADAF6D001D00022D2941201
:10016A00014AC29422A2E79283A2E69282A2E5926F
:10017A0081A2E4928012016712014AA2E39283A249
:10018A00E29282A2E19281A2E0928012016722D2D7
:10019A009302016FC29302016FC294C0027A2812BD
:1001AA000154D002743312019E743312019E7432C8
:1001BA0012019E742812019E740C12019E7401127F
:1001CA00019EC0027A02120154D00222E493600610
:1001DA00120199A380F6224440448002019EC0E0A5
:1001EA00E8C4540F4430120199E8540F4430120104
:0401FA0099D0E02296
:1001FE00C0E0C0D0C000C001C002E4F538F539F54A
:10020E003AF53BF53C7A20E533A2E779047830E6FF
:10021E0033F608D9FA79057838E636D4F608D9F9DE
:10022E00DAE5D002D001D000D0D0D0E022C0E0C0BC
:10023E00D0C000C001C002E4F538F539F53AF53BFF
:10024E00F53C7A20E533A2E779047830E633F608F8
:10025E00D9FA79057838C0D0E6243320E70224D0C5
:10026E0020E30224FDD0D033F608D9EADAD6D00244
:10027E00D001D000D0D0D0E022C0E0C0D0C000C0AD
:10028E0001C0027A207905C3783CE613C0D030E76E
:10029E000224D030E30224FDF618D0D0D9EC790434
:1002AE007833E613F618D9FADADBD002D001D00093
:1002BE00D0D0D0E022C0E0C0D0E5302534F530E516
:1002CE00313535F531E5323536F532E5333537F53D
:1002DE0033D0D0D0E022C0E0C0D0C3E5309534F5A5
:1002EE0030E5319535F531E5329536F532E5339514
:1002FE0037F533D0D0D0E022C0E0C0D0C3E5309582
:10030E0034E5319535E5329536E53395379200D0A3
:10031E00D0D0E022C0E0C0D0C3E5349530E53595AD
:10032E0031E5369532E53795339200D0D0D0E022C4
:10033E00C0E0C0D0C200C3E53495307014E53595E9
:10034E0031700EE53695327008E53795337002D26E
:10035E0000D0D0D0E02212033E200003020322225E
:10036E0012033E20000302030622C0E0C0F0C0D0FC
:10037E00C000C001C002C003E5308534F0A4F8A966
:10038E00F0E5318534F0A429F9E435F0FAE530854D
:10039E0035F0A429F9E5F03AFAE433FBE532853479
:1003AE00F0A42AFAE5F03BFBE5318535F0A42AFAF4
:1003BE00E5F03BFBE5308536F0A42AFAE5F03BFB91
:1003CE00E5338534F0A42BFBE5328535F0A42BFB09
:1003DE00E5318536F0A42BFBE5308537F0A42BFBF9
:1003EE008B338A3289318830D003D002D001D000CD
:1003FE00D0D0D0F0D0E022C0E0C0D0C000C001C04C
:10040E0002C003C0047C20E4F8F9FAFBC3E53033E4
:10041E00F530E53133F531E53233F532E53333F589
:10042E0033E833F8E933F9EA33FAEB33FBC3E895F3
:10043E0034E99535EA9536EB95374013E89534F85F
:10044E00E99535F9EA9536FAEB9537FB433001DC41
:10045E00BBD004D003D002D001D000D0D0D0E02247
:10046E003099FDC299F59922E493600612046EA3A9
:10047E0080F62275F06484443012046EE5F075F057
:10048E000A84443012046EE5F0443012046E740D8A
:10049E0012046E740A12046E2275AC0075AD0075EE
:1004AE00B30075B40075B10075B200438E1043876A
:1004BE008075985253C4DF53890F438920758DF789
:1004CE00D28E759852C28C438E085389F04389019F
:1004DE0043B38253B47D79C87868D8FED9FA53E80D
:1004EE00F043E80775F60043F68143E10122C2EFBF
:1004FE00D2EE30EFFDE5C2540FF8E5C3C4C0E054B0
:10050E000FF9D0E054F048F822C0E0E8C4540F448C
:10051E003012046EE8540F443012046ED0E022C044
:10052E00E07401141201E1D0E0C000A83B1201E812
:10053E00D000C000A83A1201E8D000C0E0742E121C
:10054E000199D0E0C000A8391201E8D000C000A87F
:10055E00381201E8D00022438E08E58954F0440198
:10056E00F589758CF0758A2CD2A9D28C22C28C7525
:10057E008CF0758A2CD28CB2963275C80075CDBFB0
:10058E0075CC2843C98075CBBF75CA28E4F53FF5F5
:10059E0040439B8022C2CFB284C0E0C0D0053FE56D
:1005AE003F701405400557C3E5589557B39290E533
:1005BE0057B46403755700E53FB4E814E540B4033F
:1005CE0029D201B28CE4F53FF540E54124018003C8
:1005DE000205F8E54304D4F543E54104D4F541B4EE
:1005EE006008754100E54204F542D0D0D0E032C03B
:1005FE00E0740F141201E1D0E0C000A8411201E82E
:10060E00D000C0E0740E141201E1D0E0C0E0743AE4
:10061E00120199D0E0C0E0740C141201E1D0E0C0D8
:10062E0000A8421201E8D000C0E07401141201E1EA
:10063E00D0E053E8F043E8001204FC883D893E53B5
:10064E00E8F043E8071204FC8830893175320075F2
:10065E003300753404753551753600753700120345
:10066E0078853D34853E35753600753700120405A4
:10067E0075344A7535007536007537001203787576
:10068E0034987535287536037537001202C312017A
:10069E00FE12052DC000A83B120517D000C000A801
:1006AE003A120517D000C0E0742E12046ED0E0C0CE
:1006BE0000A839120517D000C000A838120517D0AF
:1006CE0000C0E0740A12046ED0E0853A59853B5A98
:1006DE0022D202D203D204D206D205D295C280C251
:1006EE0081C282C283C29320953A7A321207432086
:1006FE009532D280D281D282D283D293C293A295E6
:10070E009205D293C280A2959206D280C281A29502
:10071E009204D281C282A2959203D282C283A29502
:10072E009202D28322C28CC28D758CF0758A2CD225
:10073E008C308DFD22120733DAFB2275817F120475
:10074E00A71201A3C201C207C208C20B75460075EB
:10075E004700754100754200755400755600754589
:10076E0000755700120588D2CAD2AF754850754928
:10077E0001754A3CE54AD4F550754C17754D027516
:10078E004E2DE54ED4F552300105C2011205FD0283
:10079E0008541206DFA2065005A20550082275580D
:1007AE00007546002275580075460022C0E0C0D084
:1007BE00C200E4F530F531F532F533F534F535F5A3
:1007CE0036F537854830854931855934855A35D0C7
:1007DE00D0D0E022C0E0C0D0C200E4F530F531F553
:1007EE0032F533F534F535F536F537854C30854D24
:1007FE0031855934855A35D0D0D0E022C0E0C0D0F2
:10080E00C200E4F530F531F532F533F534F535F552
:10081E0036F537753050855934855A35D0D0D0E0FD
:10082E0022C0E0C0D0C200E4F530F531F532F53328
:10083E00F534F535F536F537753050855934855A1A
:10084E0035D0D0D0E022E546B40026020A0B75580A
:10085E0000754100740112019EC0027A0212015409
:10086E00D0027546017541007542007545010207BB
:10087E0095B40171C0E07401141201E3D0E0C0839D
:10088E00C082C0E09000D31201D6D0E0D082D083D7
:10089E00C0E0740D141201E3D0E0C000A8491201AB
:1008AE00E8D000C000A8481201E8D0007558647462
:1008BE0000B542181207BA120364200022754602D0
:1008CE00740112019EC209D20775430012080A1262
:1008DE000322200001227558007546000207957507
:1008EE004502020795B40246C0E07401141201E3FA
:1008FE00D0E0C083C082C0E09000E71201D6D0E005
:10090E00D082D083C0E0740D141201E3D0E0C00099
:10091E00A8431201E8D000755814E543C3954A4028
:10092E000A754603C207740112019E020795B403AD
:10093E0050C0E07401141201E3D0E0C083C082C045
:10094E00E09000FB1201D6D0E0D082D083C0E074DC
:10095E000D141201E3D0E0C000A84D1201E8D00042
:10096E00C000A84C1201E8D0007558641207E212BC
:10097E00036420000675460475430075450402079E
:10098E0095B40442C0E07401141201E3D0E0C083B8
:10099E00C082C0E090010F1201D6D0E0D082D08389
:1009AE00C0E0740D141201E3D0E0C000A8431201A0
:1009BE00E8D000755814E543C395524003754605BB
:1009CE00754505020795B40531C0E0740114120196
:1009DE00E3D0E0C083C082C0E09001231201D6D0E4
:1009EE00E0D082D08375580012082F1203643000B5
:1009FE0003754600754506020795020856E547B48D
:100A0E000009020AA6754701020A0BB40109120B6E
:100A1E001B754702020A0BB40209020B86754703C7
:100A2E00020A0BB40309020BED754704020A0BB45C
:100A3E0004CD1206DFC0027A4B120154D002C0E080
:100A4E007401141201E3D0E0C083C082C0E09000B4
:100A5E00731201D6D0E0D082D083C0E0740114129C
:100A6E0001E1D0E0C083C082C0E09000851201D6C3
:100A7E00D0E0D082D083A2065007A2045006020A0C
:100A8E003D020862754700740112019EC0027A028F
:100A9E00120154D002020A0B1206DFC0027A4B1268
:100AAE000154D002120AF4C0E07401141201E3D012
:100ABE00E0C083C082C0E090002E1201D6D0E0D0FC
:100ACE0082D083C0E07401141201E1D0E0C000A80E
:100ADE00491201E8D000C000A8481201E8D000A2D7
:100AEE000440B5020A13A2025005A203501022C3FD
:100AFE00E548343040B1E5482401D4F54822C3E539
:100B0E0048943140A2E5482499D4F548221206DFD4
:100B1E00C0027A4B120154D002120B69C0E074016C
:100B2E00141201E3D0E0C083C082C0E090003F12F7
:100B3E0001D6D0E0D082D083C0E07401141201E15E
:100B4E00D0E0C00078001201E8D000C000A84A1220
:100B5E0001E8D000A20440B5020A1FA2025005A26D
:100B6E0003500B22E54A2401D4F54A055022E54AEA
:100B7E002499D4F54A1550221206DFC0027A4B1280
:100B8E000154D002120BD4C0E07401141201E3D050
:100B9E00E0C083C082C0E09000501201D6D0E0D0F9
:100BAE0082D083C0E07401141201E1D0E0C000A82D
:100BBE004D1201E8D000C000A84C1201E8D000A2EE
:100BCE000440B5020A2BA2025005A203500922E5E9
:100BDE004C2401D4F54C22E54C2499D4F54C221228
:100BEE0006DFC0027A4B120154D002120C3BC0E059
:100BFE007401141201E3D0E0C083C082C0E0900003
:100C0E00611201D6D0E0D082D083C0E074011412FC
:100C1E0001E1D0E0C00078001201E8D000C000A8C9
:100C2E004E1201E8D000A20440B5020A37A20250CB
:100C3E0005A203500B22E54E2401D4F54E05522297
:0A0C4E00E54E2499D4F54E0552221C
:00000001FF
