:1000000002041E54656D7020696E2043656C73692F
:0300100075730005
:10001300C000788500D8FDD00022C000C001792837
:100023007868D8FED9FADAF6D001D00022D2941239
:100033000013C29422A2E79283A2E69282A2E592DF
:1000430081A2E49280120030120013A2E39283A2F1
:10005300E29282A2E19281A2E0928012003022D247
:1000630093020038C293020038C294C0027A281265
:10007300001DD002743312006774331200677432A8
:100083001200677428120067740C1200677401125F
:100093000067C0027A0212001DD00222E4936006B8
:1000A300120062A380F62244404480020067C0E04D
:1000B300E8C4540F4430120062E8540F4430120075
:0400C30062D0E02205
:1000C700C0E0C0D0C000C001C002E4F538F539F582
:1000D7003AF53BF53C7A20E533A2E779047830E638
:1000E70033F608D9FA79057838E636D4F608D9F917
:1000F700DAE5D002D001D000D0D0D0E022C0E0C0F5
:10010700D0C000C001C002E4F538F539F53AF53B37
:10011700F53C7A20E533A2E779047830E633F60830
:10012700D9FA79057838C0D0E6243320E70224D0FD
:1001370020E30224FDD0D033F608D9EADAD6D0027C
:10014700D001D000D0D0D0E022C0E0C0D0C000C0E5
:1001570001C0027A207905C3783CE613C0D030E7A6
:100167000224D030E30224FDF618D0D0D9EC79046C
:100177007833E613F618D9FADADBD002D001D000CB
:10018700D0D0D0E022C0E0C0D0E5302534F530E54E
:10019700313535F531E5323536F532E5333537F575
:1001A70033D0D0D0E022C0E0C0D0C3E5309534F5DD
:1001B70030E5319535F531E5329536F532E533954C
:1001C70037F533D0D0D0E022C0E0C0D0C3E53095BA
:1001D70034E5319535E5329536E53395379200D0DC
:1001E700D0D0E022C0E0C0D0C3E5349530E53595E6
:1001F70031E5369532E53795339200D0D0D0E022FD
:10020700C0E0C0D0C200C3E53495307014E5359521
:1002170031700EE53695327008E53795337002D2A6
:1002270000D0D0D0E0221202072000030201EB2207
:100237001202072000030201CF22C0E0C0F0C0D0A5
:10024700C000C001C002C003E5308534F0A4F8A99E
:10025700F0E5318534F0A429F9E435F0FAE5308585
:1002670035F0A429F9E5F03AFAE433FBE5328534B1
:10027700F0A42AFAE5F03BFBE5318535F0A42AFA2C
:10028700E5F03BFBE5308536F0A42AFAE5F03BFBC9
:10029700E5338534F0A42BFBE5328535F0A42BFB41
:1002A700E5318536F0A42BFBE5308537F0A42BFB31
:1002B7008B338A3289318830D003D002D001D00005
:1002C700D0D0D0F0D0E022C0E0C0D0C000C001C084
:1002D70002C003C0047C20E4F8F9FAFBC3E530331D
:1002E700F530E53133F531E53233F532E53333F5C2
:1002F70033E833F8E933F9EA33FAEB33FBC3E8952C
:1003070034E99535EA9536EB95374013E89534F897
:10031700E99535F9EA9536FAEB9537FB433001DC79
:10032700BBD004D003D002D001D000D0D0D0E0227F
:1003370075AC0075AD0075B30075B40075B1007587
:10034700B200438E1043878075985253C4DF538998
:100357000F438920758DF7D28E759852C28C438EC4
:10036700085389F043890143B38253B47D79C87830
:1003770068D8FED9FA53E8F043E80775F60043F664
:100387008143E10122C28CC28D758CBF758A28D248
:100397008C308DFD2212038CDAFB22C0E07401142D
:1003A7001200AAD0E0C000A83B1200B1D000C000E4
:1003B700A83A1200B1D000C0E0742E120062D0E05B
:1003C700C000A8391200B1D000C000A8381200B18F
:1003D700D00022C2EFD2EE30EFFDE5C2540FF8E5B0
:1003E700C3C4C0E0540FF9D0E054F048F822309964
:1003F700FDC299F59922E49360061203F5A380F6EE
:1004070022C0E0E8C4540F44301203F5E8540F4407
:10041700301203F5D0E02275817F12033712006C8A
:10042700C0E07401141200ACD0E0C083C082C0E009
:1004370090000312009FD0E0D082D083C0E0740107
:10044700141200AAD0E053E8F043E8001203DA8858
:100457003D893E53E8F043E8071203DA88308931D3
:10046700753200753300753404753551753600756E
:100477003700120241853D34853E357536007537A4
:10048700001202CE75344A7535007536007537008F
:100497001202417534987535287536037537001281
:1004A700018C1200C71203A2E53AC000A83B120450
:1004B70008D000C000A83A120408D000C0E0742E8B
:1004C7001203F5D0E0C000A839120408D000C0001C
:1004D700A838120408D000C0E0740A1203F5D0E06F
:0D04E7007AFA12039C7AFA12039C02044D6B
:00000001FF
